S00D00004665744F532E7372656356
S11300000C9440000C945D000C945D000C945D0015
S11300100C945D000C945D000C945D000C945D00E8
S11300200C945D000C945D000C945D000C945D00D8
S11300300C945D000C945D000C9476020C945D00AD
S11300400C945D000C945D000C945D000C945D00B8
S11300500C945D000C945D000C945D000C945D00A8
S11300600C945D000C945D0045464765666700206E
S11300702B2D2E3031323334353637383968000081
S113008011241FBECFEFD8E0DEBFCDBF11E0A0E04A
S1130090B1E0E8EBFFE002C005900D92A03FB1078C
S11300A0D9F722E0A0EFB1E001C01D92AC30B20755
S11300B0E1F70E943C010C9481060C9400000F931C
S11300C01F930E94AB020091FA011091FB01209151
S11300D0FC013091FD01601B710B820B930B28EE28
S11300E033E040E050E00E946D072093F00130932C
S11300F0F1014093F2015093F3011F910F91089580
S113010008950F931F93CF93DF93CDB7DEB7619715
S11301100FB6F894DEBF0FBECDBF8091F3018F936D
S11301208091F2018F938091F1018F938091F0017E
S11301308F938AE591E09F938F931F9281E18F9330
S11301408E010F5F1F4F1F930F930E94CB06B801C0
S113015080E090E00E940C040FB6F894DEBF0FBE5E
S1130160CDBF61960FB6F894DEBF0FBECDBFDF9151
S1130170CF911F910F91089508950F931F930E949B
S1130180AB020091F5011091F6012091F701309135
S1130190F801DC01CB01801B910BA20BB30B843F54
S11301A09140A105B105B0F00E94AB026093F50146
S11301B07093F6018093F7019093F8018091F40114
S11301C091E0811190E09093F401811102C02D9A85
S11301D001C02D981F910F91089508958091F40105
S11301E0811103C060E771E002C067E671E080E05E
S11301F090E00C940C041092F4012D980895089545
S113020008950F931F93CF93DF93CDB7DEB7619714
S11302100FB6F894DEBF0FBECDBFE1E0F1E0108170
S1130220018182810E9465040F931F931F928F9313
S113023089E791E09F938F931F9281E18F938E01C1
S11302400F5F1F4F1F930F930E94CB06B80180E0EE
S113025090E00E940C040FB6F894DEBF0FBECDBF31
S113026061960FB6F894DEBF0FBECDBFDF91CF917C
S11302701F910F91089508950E949B020E946E039E
S11302800E94AC0360E080E00E94B70380E891E044
S11302900E94C3032FEF8FE097E2215080409040EB
S11302A0E1F700C000000E94ED030E946101789410
S11302B00E94F1010E94E60280E590E00E94B602ED
S11302C0F7CF0E94AB026093FA017093FB01809315
S11302D0FC019093FD010C946F042DE1829FC001F9
S11302E01124FC01EF5FFE4F128208952DE1829FDD
S11302F0C0011124FC01EF5FFE4F8281811102C015
S113030081E082830895282F30E09DE1899FF001E8
S11303101124EF5FFE4F8281823039F082E08283C4
S113032081E0F901EE5FFD4F80838DE1829FF00152
S1130330839FF00D1124EF5FFE4F138280915801CB
S1130340082E000C990B2817390719F48FEF8093A6
S1130350580180915901082E000C990B2817390770
S113036019F48FEF809359010E94AC030C946F042D
S11303702DE1829FC0011124FC01EF5FFE4F138227
S11303808FEF80935801809359010E94AC030C9421
S11303906F041F93CF93DF93182F109204011092D0
S11303A0210110923E018DE1189FE0011124CF5FDD
S11303B0DE4F81E08B8310935801109359010E9402
S11303C0AC0361E0812F0E94D604E885F98530975B
S11303D021F0DF91CF911F910994DF91CF911F916B
S11303E008950F931F93CF93DF93C1E0D1E08E0163
S11303F0D80112968C91129781110FC01696ED9127
S1130400FC911797309709F00995D8011496ED914E
S1130410FC911597309709F00995035E1F4FB1E0E1
S113042008351B0729F7909158018091000198170E
S113043031F10E94AC032091580127FD1AC01DE13F
S11304402103F0011124EF5FFE4F80859185892BF4
S113045081F0808191810E942E0520915801210311
S1130460F0011124EF5FFE4F0084F185E02D099522
S113047002C00E946F048091580180930001209172
S1130480580127FD1AC01DE12103F0011124EF5F7B
S1130490FE4F8381882389F0808191810E942E05FB
S11304A0209158012103F0011124EF5FFE4F0084D5
S11304B0F185E02D309709F0099502E012E0F8018A
S11304C08081882339F0EA85FB85309709F0099506
S11304D0D8011C920F5F1F4F6D96B1E0C835DB0742
S11304E071F7DF91CF911F910F9108951F920F9291
S11304F00FB60F9211248F939F93AF93BF93809164
S1130500FE019091FF01A0910002B09101020196B9
S1130510A11DB11D8093FE019093FF01A0930002E1
S1130520B0930102BF91AF919F918F910F900FBE35
S11305300F901F90189584B18D6084B98AB1806F33
S11305408AB982E084BD99EF97BD93E095BD80930D
S11305506E0078940895F8946091FE017091FF0103
S1130560809100029091010278940895009741F0DF
S1130570EFE9FFE03197F1F700C000000197F6CFF3
S1130580089581EA809380008AE08093810083E269
S113059090E090938900809388008FE090E090939E
S11305A08B0080938A0008959091C00095FFFCCF42
S11305B08093C60008958091C00087FFFCCF80918E
S11305C0C60008958091C00080780895CF930E945A
S11305D0E202882309F453C00E94DB02C82F0E9460
S11305E0D402809159018F3F59F5C43651F480915A
S11305F0F901082E000C990B01966091910170E0AD
S11306000DC0C13691F46091910170E08091F901BF
S1130610082E000C990B0197860F971F0E9459070B
S11306208093F901CF910C946F04C73741F5809101
S1130630F9010E94C9018091F901809359011FC0F9
S1130640C33791F038F4C53661F0C137C1F40E9464
S113065076010FC0C73759F0C83789F4CF910C948D
S113066083010E946D0105C0CF910C94B8010E94D2
S1130670C90161E080915901CF910C94D604CF91C6
S1130680089580FF02C05C9A01C05C9881FF02C09B
S11306905D9A01C05D9882FF02C05E9A01C05E98B7
S11306A083FF02C05F9A01C05F98299A00002998CD
S11306B081E28A95F1F700000895CF93C82F66234D
S11306C011F0289A01C028988C2F82958F700E946F
S11306D041038C2F8F70CF910C94410384B18360BC
S11306E084B98AB1806F8AB98FE097E20197F1F7F4
S11306F000C0000083E00E94410381EE94E0019772
S1130700F1F700C0000083E00E94410392E39A9550
S1130710F1F783E00E94410382E38A95F1F782E0D6
S11307200E94410360E088E20E945D0360E088E08B
S11307300E945D0360E081E00E945D0383EF91E02D
S11307400197F1F700C0000060E086E00E945D03BD
S113075060E08CE00C945D0360E081E00E945D0346
S113076083EF91E00197F1F700C000000895611153
S113077061E0E62FF0E0EB55FE4F9081890F60E0D9
S113078080680C945D03CF93DF93EC0189918823F7
S113079021F061E00E945D03F9CFDF91CF910895CC
S11307A00F931F93CF93DF938B01877028E0829F71
S11307B0C001112460E080640E945D03E801085FC9
S11307C01F4F61E089910E945D03C017D107C9F7EB
S11307D0DF91CF911F910F9108950E94C1020E9451
S11307E06E0367EE71E080E00E94D0036FED71E06C
S11307F081E00E94D00367ED71E082E00E94D003A3
S11308006FEC71E083E00E94D00367EC71E084E058
S11308100E94D0030C946101EF92FF920F931F93F7
S1130820CF93DF93CDB7DEB761970FB6F894DEBFF1
S11308300FBECDBF8B010097E1F09F938F9387EAA2
S113084091E09F938F931F9281E18F93CE01019644
S11308507C019F938F930E94CB0660E080E00E940E
S1130860B703C7010E94C3030FB6F894DEBF0FBEDF
S1130870CDBF01151105E1F01F930F9387EA91E0B5
S11308809F938F931F9281E18F938E010F5F1F4F70
S11308901F930F930E94CB0661E080E00E94B70390
S11308A0C8010E94C3030FB6F894DEBF0FBECDBFCC
S11308B061960FB6F894DEBF0FBECDBFDF91CF9126
S11308C01F910F91FF90EF900895833030F4E82F3B
S11308D0F0E0EC53FE4F808108958FE308950F9369
S11308E01F93CF93DF93CDB7DEB761970FB6F8941C
S11308F0DEBF0FBECDBF809191011F928F93809177
S1130900F901082E000C990B01969F938F938DEAA1
S113091091E09F938F931F9281E18F938E010F5FDC
S11309201F4F1F930F930E94CB066FE671E0C8011F
S11309300E940C0461E080E00E94B70361E08BE553
S11309400E945D03E091F9018DE1E802F0011124B8
S1130950EF5FFE4FE2810FB6F894DEBF0FBECDBF4E
S1130960E33028F4F0E0EC53FE4F808101C08FE3C4
S113097061E00E945D0361E08DE50E945D03E0910A
S1130980F9019DE1E902F0011124EF5FFE4F80813E
S113099091810E94C30361960FB6F894DEBF0FBE27
S11309A0CDBFDF91CF911F910F910895EF92FF92E8
S11309B01F93CF93DF93CDB7DEB761970FB6F8944B
S11309C0DEBF0FBECDBF282F30E09DE1899FF0012F
S11309D01124EF5FFE4FE281E33028F4F0E0EC53A2
S11309E0FE4F108101C01FE38DE1829FF001839FC0
S11309F0F00D1124EF5FFE4F81818F9380818F93DF
S1130A008EEB91E09F938F931F9281E18F93CE01A0
S1130A1001967C019F938F930E94CB0660E080E057
S1130A200E94B703C7010E94C30360E08FE00E94E5
S1130A30B70361E0812F0E945D030FB6F894DEBF17
S1130A400FBECDBF61960FB6F894DEBF0FBECDBF0B
S1130A50DF91CF911F91FF90EF9008950F931F9313
S1130A60CF93DF93CDB7DEB761970FB6F894DEBFAF
S1130A700FBECDBF9F938F938EEB91E09F938F9387
S1130A801F9281E18F938E010F5F1F4F1F930F936E
S1130A900E94CB0660E080E00E94B703C8010E9478
S1130AA0C30360E08FE00E94B70361E083E00E942B
S1130AB05D030FB6F894DEBF0FBECDBF61960FB6CF
S1130AC0F894DEBF0FBECDBFDF91CF911F910F9180
S1130AD00895ABE0B0E0EFE6F5E00C9493076C0109
S1130AE07B013A01FC0117821682838181FF03C1D5
S1130AF0CE0101964C01F601B380F701B3FC0591D8
S1130B00B3FE01917F01002309F4F1C0053249F4D9
S1130B10B3FC0591B3FE01917F01053211F010E0A1
S1130B2019C0B601802F90E00E948F065301350151
S1130B30E2CF002309F4DBC0602F70E08FE690E081
S1130B400E948406892B49F0F701B3FC0591B3FE9A
S1130B5001917F0117FFEDCF04C0033239F00C3649
S1130B6019F0011105C0C3C01068EECF10E1ECCF3D
S1130B70602F70E088E690E00E948406892B41F0A3
S1130B805301F4E0AF0EB11CB6018FE390E010C046
S1130B90033631F0033779F0033511F511600BC0DA
S1130BA0530182E0A80EB11CB601F301808191814A
S1130BB00E948F06BCCF5301F2E0AF0EB11CF301CB
S1130BC060807180F30110FD859110FF81913F01D8
S1130BD0882309F4ACCFB60190E00E948F06F2CFCF
S1130BE0043611F0093621F5530117FF09C0F4E06A
S1130BF0AF0EB11CF30160817181828193810AC0BF
S1130C00F2E0AF0EB11CF30160817181072E000C7C
S1130C10880B990B1F7E97FF08C09095809570955F
S1130C2061957F4F8F4F9F4F10642AE030E030C0B2
S1130C30003791F040F40835A1F00F3609F057C0A1
S1130C4028E030E011C0053719F0083731F04FC003
S1130C501F7E2AE030E008C01061146220E130E019
S1130C6003C0146020E132E0530117FF09C0F4E02F
S1130C70AF0EB11CF301608171818281938108C040
S1130C80F2E0AF0EB11CF3016081718180E090E06D
S1130C90A4010E94FB06082F081916FF05C0B6011F
S1130CA08DE290E00E948F0614FF15C0FE01E00F54
S1130CB0F11D8081803379F0B60180E390E00E94D9
S1130CC08F0612FF08C01072812F90E0B601885A77
S1130CD09F4F0E948F060150F401E00FF11D8081A7
S1130CE0B60190E00E948F060111F5CF20CFF601E6
S1130CF08681978102C08FEF9FEF2B96EEE00C94D4
S1130D00AF07F8940C94DA07FC010590061621F05D
S1130D100020D9F7C00108953197CF0108950F93AA
S1130D201F93CF93DF93FB01238121FD03C08FEF3A
S1130D309FEF2CC022FF16C0468157812481358144
S1130D404217530744F4A081B1819D012F5F3F4FA7
S1130D50318320838C93268137812F5F3F4F3783E4
S1130D60268314C08B01EC01FB010084F185E02D86
S1130D700995892BE1F6D80116968D919C911797C8
S1130D80019617969C938E931697CE01DF91CF917F
S1130D901F910F910895AEE0B0E0E1EDF6E00C9400
S1130DA09D070D891E898F89988D26E02C831A83CF
S1130DB0098397FF02C080E090E801979E838D83AA
S1130DC0AE01455E5F4F698D7A8DCE0101960E941A
S1130DD069054D815E8157FD0AC02F813885421710
S1130DE053070CF49A01F801E20FF31F10822E96B8
S1130DF0E4E00C94B907FA01AA27283051F1203114
S1130E0081F1E8946F936E7F6E5F7F4F8F4F9F4F9A
S1130E10AF4FB1E03ED0B4E03CD0670F781F891FDC
S1130E209A1FA11D680F791F8A1F911DA11D6A0FAA
S1130E30711D811D911DA11D20D009F468943F915D
S1130E402AE0269F11243019305D3193DEF6CF015C
S1130E500895462F4770405D4193B3E00FD0C9F722
S1130E60F6CF462F4F70405D4A3318F0495D31FD8F
S1130E704052419302D0A9F7EACFB4E0A6959795E2
S1130E80879577956795BA95C9F7009761057105B8
S1130E9008959B01AC010A2E069457954795379502
S1130EA02795BA95C9F7620F731F841F951FA01D5C
S1130EB0089597FB072E16F4009407D077FD09D008
S1130EC00E94C60707FC05D03EF4909581959F4F7C
S1130ED00895709561957F4F0895A1E21A2EAA1B7B
S1130EE0BB1BFD010DC0AA1FBB1FEE1FFF1FA217D6
S1130EF0B307E407F50720F0A21BB30BE40BF50BD3
S1130F00661F771F881F991F1A9469F7609570955B
S1130F10809590959B01AC01BD01CF0108952F925E
S1130F203F924F925F926F927F928F929F92AF9275
S1130F30BF92CF92DF92EF92FF920F931F93CF93C2
S1130F40DF93CDB7DEB7CA1BDB0B0FB6F894DEBF59
S1130F500FBECDBF09942A88398848885F846E847F
S1130F607D848C849B84AA84B984C884DF80EE80C9
S1130F70FD800C811B81AA81B981CE0FD11D0FB6D2
S1130F80F894DEBF0FBECDBFED010895AA1BBB1BB5
S1130F9051E107C0AA1FBB1FA617B70710F0A61B75
S1130FA0B70B881F991F5A95A9F780959095BC0196
S10B0FB0CD010895F894FFCF70
S1130FB8FE9201020080005F008100BC0000000076
S1130FC8000000000000000000000000000098017C
S1130FD80200ED00BD00EE00FB0000000000000070
S1130FE800000000000000000000009E0102000054
S1130FF801FF0001013B01000000000000000000A7
S11310080000000000000000FFFF557074696D6562
S11310183A20256C7573004C45443A204F4E200005
S11310284C45443A204F4646005B25635D257300D2
S11310384665744F5320426F6F74696E672E2E2E67
S11310480003436C6F636B004865617274005374EA
S113105861747573000040252D313673004665743C
S11310684F53204D656E752025642F256400252D6A
S113107831357300000203070E0E1C1F030604001B
S11310880E1915130E0000001B1B1B1B1B00000070
S11310980F091D1F1C000000080C0E0F0E0C080081
S9030000FC
