:100000000C9434000C9451000C9451000C94510049
:100010000C9451000C9451000C9451000C9451001C
:100020000C9451000C9451000C9451000C9451000C
:100030000C9451000C9451000C94B2030C94510098
:100040000C9451000C9451000C9451000C945100EC
:100050000C9451000C9451000C9451000C945100DC
:100060000C9451000C94510011241FBECFEFD8E026
:10007000DEBFCDBF12E0A0E0B1E0E8E5F1E102C0F3
:1000800005900D92A031B107D9F722E0A0E1B2E0CE
:1000900001C01D92AC32B207E1F70E94D5030C9467
:1000A000AA080C940000F89460912002709121023B
:1000B000809122029091230278942091280230911D
:1000C000290240912A0250912B02621B730B840B70
:1000D000950B28EE33E040E050E00E946D05209340
:1000E000240230932502409326025093270208955C
:1000F00008950895F8948091200290912102A09192
:100100002202B0912302789440911C0250911D026A
:1001100060911E0270911F02841B950BA60BB70BFA
:10012000843F9140A105B105F0F0F8948091200240
:1001300090912102A0912202B091230278948093A1
:100140001C0290931D02A0931E02B0931F02809187
:100150001B0291E0811190E090931B02811102C07B
:100160002D9A08952D980895089510921B022D98A8
:100170000895089508950895FC018081811101C0BA
:10018000089531969091C00095FFFCCF8093C600F2
:10019000F4CF80FF17C05C9A81FF16C05D9A82FF82
:1001A00015C05E9A83FF14C05F9A5B9A85E08A95BA
:1001B000F1F700005B9887EC90E00197F1F700C041
:1001C000000008955C98E8CF5D98E9CF5E98EACF8B
:1001D0005F98EBCFCF93C82F611559F0289A8C2FD9
:1001E00082958F700E94C9008C2F8F70CF910C94D4
:1001F000C9002898F4CFCF93DF9300D000D0CDB7BB
:10020000DEB789839A838AE891E00E94BC008981E5
:100210009A810E94BC0088EE91E00E94BC00298176
:100220002B833A813C83EB81FC818081811107C063
:100230000F900F900F900F90DF91CF910895EB8169
:10024000FC813196EB83FC8361E00E94EA00EBCFF6
:10025000E62FF0E0EB57FE4F9081890F60E0806859
:100260000C94EA000F931F93CF93DF93CDB7DEB7C3
:1002700063970FB6F894DEBF0FBECDBF6A8B7B8B42
:100280008E010F5F1F4F0097C9F09F938F9385E9F1
:1002900091E09F938F931F9281E18F931F930F9310
:1002A0000E94E20560E080E00E942801C8010E94EF
:1002B000FB000FB6F894DEBF0FBECDBF9B899F93A6
:1002C0008A898F9385E991E09F938F931F9281E1B3
:1002D0008F931F930F930E94E20561E080E00E94DC
:1002E0002801C8010E94FB000FB6F894DEBF0FBEC4
:1002F000CDBF63960FB6F894DEBF0FBECDBFDF91C2
:10030000CF911F910F9108950F931F93CF93DF9378
:10031000CDB7DEB761970FB6F894DEBF0FBECDBF85
:10032000809127028F93809126028F9380912502DE
:100330008F93809124028F938BE991E09F938F9309
:100340001F9281E18F938E010F5F1F4F1F930F93B9
:100350000E94E205B80180E090E00E9432010FB6F1
:10036000F894DEBF0FBECDBF61960FB6F894DEBF26
:100370000FBECDBFDF91CF911F910F910895809156
:100380001B0268EA71E0811102C061EB71E080E05C
:1003900090E00C9432010F931F93CF93DF93CDB76E
:1003A000DEB761970FB6F894DEBF0FBECDBF2091C8
:1003B0000301309104018091050190910601833081
:1003C000910570F589579E4FFC0180813F932F93D3
:1003D000382F330F330B3F938F938AEB91E09F932A
:1003E0008F931F9281E18F938E010F5F1F4F1F9399
:1003F0000F930E94E205B80180E090E00E94320174
:100400000FB6F894DEBF0FBECDBF61960FB6F8945D
:10041000DEBF0FBECDBFDF91CF911F910F91089529
:100420008FE3D4CF0F931F93CF93DF93880F880F61
:10043000880FC62F60E08064D72F0E94EA008E01EB
:10044000085F1F4F61E089910E94EA00C017D10741
:10045000C9F7DF91CF911F910F9108950F931F93CB
:10046000CF93DF93CDB7DEB761970FB6F894DEBFB9
:100470000FBECDBF1F9283E08F9380911A02982FF9
:10048000990F990B01969F938F9381EC91E09F9325
:100490008F931F9281E18F938E010F5F1F4F1F93E8
:1004A0000F930E94E2056AEE71E0C8010E943201DA
:1004B00061E080E00E94280161E08BE50E94EA0093
:1004C000E0911A022EE1E202F0011124ED5FFE4FED
:1004D000828193810FB6F894DEBF0FBECDBF83300B
:1004E000910510F589579E4FFC01808161E00E94C3
:1004F000EA0061E08DE50E94EA00E0911A022EE137
:10050000E202F0011124ED5FFE4F808191810E9493
:10051000FB0061960FB6F894DEBF0FBECDBFDF9132
:10052000CF911F910F9108958FE3E0CFF8948091C0
:10053000200290912102A0912202B091230278948E
:100540008093280290932902A0932A02B0932B0251
:100550000C942E02EF92FF921F93CF93DF93CDB7AF
:10056000DEB761970FB6F894DEBF0FBECDBF9EE138
:10057000899FF0011124DF01AD5FBE4F12968D916E
:100580009D911FE38330910520F489579E4FDC0134
:100590001C91ED5FFE4F81818F9380818F9382ED5F
:1005A00091E09F938F931F9281E18F937E01BFEF24
:1005B000EB1AFB0AFF92EF920E94E20560E080E0F6
:1005C0000E942801C7010E94FB0060E08FE00E94AA
:1005D000280161E0812F0E94EA000FB6F894DEBF87
:1005E0000FBECDBF61960FB6F894DEBF0FBECDBF74
:1005F000DF91CF911F91FF90EF9008950F931F937C
:10060000CF93DF93CDB7DEB761970FB6F894DEBF17
:100610000FBECDBF9F938F9382ED91E09F938F93F9
:100620001F9281E18F938E010F5F1F4F1F930F93D6
:100630000E94E20560E080E00E942801C8010E945B
:10064000FB0060E08FE00E94280161E083E00E94EF
:10065000EA000FB6F894DEBF0FBECDBF61960FB6AD
:10066000F894DEBF0FBECDBFDF91CF911F910F91E8
:10067000089584B1896084B98AB1806F8AB92FEFF7
:1006800083EF91E0215080409040E1F700C00000EE
:1006900083E00E94C9008FE19EE40197F1F700C05A
:1006A000000083E00E94C90087E592E00197F1F71E
:1006B00000C0000083E00E94C90087E592E0019736
:1006C000F1F700C0000082E00E94C90060E088E20B
:1006D0000E94EA0060E088E00E94EA0060E081E0B9
:1006E0000E94EA008FE39FE10197F1F700C000004C
:1006F00060E086E00E94EA0060E08CE00C94EA0092
:1007000060E081E00E94EA008FE39FE10197F1F74A
:1007100000C0000008951F93CF93DF93182F10920D
:10072000070110922501109243018EE1189FE0010C
:100730001124CD5FDE4F81E08C8310930201109372
:1007400001010E948003812F0E94AA02E985FA8597
:10075000309721F0DF91CF911F910994DF91CF91D4
:100760001F9108951F921FB61F9211248F939F937C
:10077000AF93BF938091200290912102A091220219
:10078000B09123020196A11DB11D80932002909388
:100790002102A0932202B0932302BF91AF919F91B7
:1007A0008F911F901FBE1F90189584B18D6084B9E2
:1007B0008AB1886F8AB91092C50087E68093C40019
:1007C00088E18093C10086E08093C20088ED91E0CB
:1007D0000E94BC0082E084BD99EF97BD93E095BD77
:1007E00080936E0078940E9439030E94800360E039
:1007F00080E00E9428018BEE91E00E94FB002FEF29
:100800003FE087E2215030408040E1F700C0000027
:1008100081EA809380008AE08093810083E290E007
:10082000909389008093880080E590938B0080935B
:100830008A000E9439036DE771E080E00E94120295
:1008400065E771E081E00E9412026DE671E082E0EE
:100850000E94120265E671E083E00E9412026DE5DB
:1008600071E084E00E9412020E9496020E949602A9
:1008700078940FEF1EE192E0C92ED12C83E0E82E90
:1008800081E0F82EE7018A819B81892B51F4EF8169
:10089000F885309709F00995ED81FE81309709F0D0
:1008A00009956E9691E0CD35D90769F72091000141
:1008B00080910201821719F10E94800320910201A8
:1008C00027FD7DC02103F0011124ED5FFE4F8185DE
:1008D0009285892B09F473C0808191810E94FE0268
:1008E000209102012103F0011124ED5FFE4F0184EC
:1008F000F285E02D0995209102012093000127FD4A
:1009000019C02103F0011124ED5FFE4F8481811590
:1009100089F0808191810E94FE02209102012103D1
:10092000F0011124ED5FFE4F0184F285E02D309738
:1009300009F00995C0E1D2E08991811549F0D7010C
:100940001B96ED91FD91309709F00995FE011292E9
:10095000BEE1EB0EF11CE3E1F2E0EC17FD0761F7FD
:100960008091C00087FF20C08091C00087FFFCCF2E
:100970009091C6008091C00085FFFCCF9093C60087
:10098000809101018F3F91F59436E1F480911A0234
:10099000982F990F990B019663E070E00E9459051A
:1009A00080931A020E942E0280E590E0AFE9BFE03A
:1009B0001197F1F700C000000197C1F75FCF0E94C7
:1009C0002E0299CF913639F480911A02982F990FFF
:1009D000990B0296E1CF973739F780911A020E945E
:1009E0008B0380911A0280930101DECF933709F4C3
:1009F00052C098F4953609F444C09137A9F6189F6F
:100A0000F0011124ED5FFE4F22813381232B09F089
:100A10003FC021E0228313823BC0973709F444C0D2
:100A2000983711F6282F30E0189FF0011124DF01CC
:100A3000AD5FBE4F12964D915D91149742305105B6
:100A400041F01296CD92DD92D901A05FBD4F91E0A9
:100A50009C93ED5FFE4F148290910201092E001CC1
:100A600000089217030611F400930201082E001CDF
:100A700000088217030611F4009301010E9480030D
:100A800091CF189FF0011124ED5FFE4F1282138267
:100A90000E94AA0289CF189FF0011124ED5FFE4F3A
:100AA000148200930201E8CF0E948B038091010120
:100AB000EFCF97FB072E16F4009407D077FD09D0EF
:100AC0000E948F0507FC05D03EF4909581959F4FBD
:100AD0000895709561957F4F0895A1E21A2EAA1B83
:100AE000BB1BFD010DC0AA1FBB1FEE1FFF1FA217DE
:100AF000B307E407F50720F0A21BB30BE40BF50BDB
:100B0000661F771F881F991F1A9469F76095709563
:100B1000809590959B01AC01BD01CF010895AA1B62
:100B2000BB1B51E107C0AA1FBB1FA617B70710F0D8
:100B3000A61BB70B881F991F5A95A9F7809590950A
:100B4000BC01CD01089590958095709561957F4F7A
:100B50008F4F9F4F08952F923F924F925F926F92C7
:100B60007F928F929F92AF92BF92CF92DF92EF923D
:100B7000FF920F931F93CF93DF93CDB7DEB7CA1BBE
:100B8000DB0B0FB6F894DEBF0FBECDBF09942A88E9
:100B9000398848885F846E847D848C849B84AA8491
:100BA000B984C884DF80EE80FD800C811B81AA811E
:100BB000B981CE0FD11D0FB6F894DEBF0FBECDBFE9
:100BC000ED010895AEE0B0E0E8EEF5E00C94BB0571
:100BD00086E08C832B893C8929833A838D899E8981
:100BE000813030E8930710F080E090E801978D8322
:100BF0009E83AE01475E5F4F6F89788DCE0101966F
:100C00000E9415064D815E8157FD0BC0EF81F8856E
:100C10004E175F070CF4FA012B893C89E20FF31F92
:100C200010822E96E2E00C94D705ABE0B0E0EBE149
:100C3000F6E00C94AE056C017B018A01FC01168282
:100C40001782838181FFDFC13AE0532EF6012381B1
:100C5000F70123FD859123FF81917F01811509F41F
:100C600037C1853239F423FD959123FF91917F019E
:100C7000953229F4B60190E00E941C08E7CF30E0DD
:100C8000912C612C712CF0E27F1640F59B32D9F04B
:100C900058F49032D1F09332F1F09E3291F576FC17
:100CA00017C1689476F806C09D3291F09033C1F474
:100CB000689470F8F70123FD959123FF91917F01CE
:100CC0009111E1CF28C0689471F8689472F8F2CF5E
:100CD000689473F8EFCF689474F8ECCF77FC1BC07E
:100CE00080ED890F8A30C8F676FE05C0959C800D90
:100CF0001124982EDFCF659C800D1124682E7F2A49
:100D0000D9CF9C3619F4689477F8D4CF9C3409F481
:100D100045C0983679F2892F8F7D8554833008F449
:100D20003FC0933609F461C0933709F46BC0933523
:100D300009F477C0943619F0993609F0A4C0F80187
:100D400077FE9AC061917191819191918F01272DC8
:100D50002F76822E97FF04C00E94A305689487F81F
:100D60002AE030E05E014FEFA41AB40AA5010E9408
:100D70004C08782E7A1886FECFC0882D8E7F791485
:100D800008F0C9C084FE1DC182FC11C12EEE822272
:100D9000B92C882D867809F4CBC00EC131E08ACFFA
:100DA000311501F1085F1F4F8FE3898321E0822E07
:100DB000912C5E012FEFA21AB20AE89477F873FC27
:100DC00003C086149104F0F18114910409F041C02C
:100DD000611409F43BCFB60180E290E00E941C0848
:100DE0006A94F6CF0C5F1F4FDFCFF80180818983B3
:100DF0000E5F1F4F91E0892E912C5E01FFEFAF1A1D
:100E0000BF0ADBCFF801A190B1908F01692D70E08E
:100E100076FC02C06FEF7FEFC5010E9411084C0104
:100E2000CCCFF801A190B1908F01692D70E076FCD4
:100E300002C06FEF7FEFC5010E9406084C01689465
:100E400077F8BDCFB60180E290E00E941C086A945A
:100E5000B8CFF50177FC859177FE81915F01B601EE
:100E600090E00E941C0881E0611001C080E0681AD7
:100E7000F1E08F1A9108A8CF61917191872F880FA7
:100E8000880B982F63CF9537C9F4872CE89484F8A2
:100E90002AE030E0F80187FE39C0619171918191BB
:100EA00091918F015E01FFEFAF1ABF0AA5010E9469
:100EB0004C08782E7A18E89487F85DCF872D897FC3
:100EC000882E903799F058F49835A9F09F36D9F0CC
:100ED000F601868197812B96EFE00C94CA0598372E
:100EE000B9F774FC05C020E130E0D4CF689484F8F1
:100EF000689482F8F8CF74FE03C0E72DE6608E2E6A
:100F000020E132E0C7CF28E030E0C4CF6191719199
:100F100080E090E0C6CF882EB72C84FE3ACFFE0149
:100F2000E70DF11D8081803309F044C049EE842231
:100F300083FC0EC080FE51C0972CB61418F4960C9A
:100F40009B18B62C862D8B196B1408F480E0B80E14
:100F5000B61408F044C06B1884FE43C0B60180E3A9
:100F600090E00E941C0882FE09C088E590E081FCA8
:100F700002C088E790E0B6010E941C087914E0F1F5
:100F80005E018FEFA81AB80A7A9482E0882E912C1D
:100F90008C0E9D1E870C911CF40182914F01B601AD
:100FA00090E00E941C088A149B04B1F711CFB92C61
:100FB000882EB5CF82FC02C0B394BACFB394B39459
:100FC000B7CFB92C882EE5CEB60180E290E00E9422
:100FD0001C08A394A614C0F3B5CFAB2CFBCF612C97
:100FE000BBCF882D867851F280E281FC8BE287FCB2
:100FF0008DE2B60190E0C0CFB60180E390E00E94A0
:101000001C089A94BBCF8FEF9FEF65CFFC01059032
:10101000615070400110D8F7809590958E0F9F1FFA
:101020000895FC016150704001900110D8F780953F
:1010300090958E0F9F1F08950F931F93CF93DF936B
:10104000182F092FEB018B8181FD09C00FEF1FEFD6
:10105000812F902FDF91CF911F910F91089582FFE3
:1010600014C02E813F818C819D81281739073CF463
:10107000E881F981CF0101968883998310838E815D
:101080009F8101968E839F83E3CFE885F985812F29
:101090000995892BA1F3DACFFA01AA27283051F15B
:1010A000203181F1E8946F936E7F6E5F7F4F8F4F99
:1010B0009F4FAF4FB1E03ED0B4E03CD0670F781FF8
:1010C000891F9A1FA11D680F791F8A1F911DA11DDD
:1010D0006A0F711D811D911DA11D20D009F4689416
:1010E0003F912AE0269F11243019305D3193DEF6BE
:1010F000CF010895462F4770405D4193B3E00FD074
:10110000C9F7F6CF462F4F70405D4A3318F0495D5E
:1011100031FD4052419302D0A9F7EACFB4E0A69541
:101120009795879577956795BA95C9F70097610563
:10113000710508959B01AC010A2E069457954795B9
:1011400037952795BA95C9F7620F731F841F951FAE
:08115000A01D0895F894FFCFE3
:10115800FEFFFFFC010200007800530084017900C3
:101168000000000000000000000000000000000077
:10117800000202020000B4007A00BF01B5000000BE
:10118800000000000000000000000000000000084F
:1011980002020000BA00B900CB01BB000000000049
:1011A80000000000000000000000000000070E0E14
:1011B8001C1F030604000E1915130E0000001B1B4C
:1011C8001B1B1B0000000F091D1F1C000000080C42
:1011D8000E0F0E0C0800400002034C43443A5052D4
:1011E800494E542C00252D31367300557074696DA5
:1011F800653A20256C7573004C45443A204F4E20C3
:10120800004C45443A204F4646005B25635D2573F4
:10121800004665744F53204D656E752025642F2553
:101228006400252D313573004665744F53205541B0
:1012380052542072656164790D0A004665744F53F3
:1012480020426F6F74696E672E2E2E00436C6F6399
:101258006B004865617274005374617475730000A3
:00000001FF
