:100000000C9440000C945D000C945D000C945D0019
:100010000C945D000C945D000C945D000C945D00EC
:100020000C945D000C945D000C945D000C945D00DC
:100030000C945D000C945D000C9482020C945D00A5
:100040000C945D000C945D000C945D000C945D00BC
:100050000C945D000C945D000C945D000C945D00AC
:100060000C945D000C945D00454647656667002072
:100070002B2D2E3031323334353637383968000085
:1000800011241FBECFEFD8E0DEBFCDBF11E0A0E04E
:10009000B1E0ECE1F0E102C005900D92AE3DB10798
:1000A000D9F721E0AEEDB1E001C01D92AA3FB20741
:1000B000E1F70E943C010C94B3060C9400000F93EE
:1000C0001F930E94A7020091E8011091E90120917D
:1000D000EA013091EB01601B710B820B930B28EE50
:1000E00033E040E050E00E949F072093DE01309310
:1000F000DF014093E0015093E1011F910F910895BA
:1001000008950F931F93CF93DF93CDB7DEB7619719
:100110000FB6F894DEBF0FBECDBF8091E1018F9383
:100120008091E0018F938091DF018F938091DE01B8
:100130008F938AE591E09F938F931F9281E18F9334
:100140008E010F5F1F4F1F930F930E94FD06B80192
:1001500080E090E00E942F040FB6F894DEBF0FBE3F
:10016000CDBF61960FB6F894DEBF0FBECDBFDF9155
:10017000CF911F910F91089508950F931F930E949F
:10018000A7020091E3011091E4012091E501309173
:10019000E601DC01CB01801B910BA20BB30B843F6A
:1001A0009140A105B105B0F00E94A7026093E30160
:1001B0007093E4018093E5019093E6018091E20160
:1001C00091E0811190E09093E201811102C02D9A9B
:1001D00001C02D981F910F91089508958091E2011B
:1001E000811103C060E771E002C067E671E080E062
:1001F00090E00C942F041092E2012D980895089538
:1002000008950F931F93CF93DF93CDB7DEB7619718
:100210000FB6F894DEBF0FBECDBFE1E0F1E0108174
:10022000018182810E948D040F931F931F928F93EF
:1002300089E791E09F938F931F9281E18F938E01C5
:100240000F5F1F4F1F930F930E94FD06B80180E0C0
:1002500090E00E942F040FB6F894DEBF0FBECDBF12
:1002600061960FB6F894DEBF0FBECDBFDF91CF9180
:100270001F910F91089508950E94D1020E94CF030B
:100280000E944C0178940E94DC010E94250380E5C5
:1002900090E00E94B002F7CF0E94A7026093E801AD
:1002A0007093E9018093EA019093EB010C94970419
:1002B0002DE1829FC0011124FC01EF5FFE4F1282ED
:1002C00008952DE1829FC0011124FC01EF5FFE4FD4
:1002D0008281811102C081E082830895282F30E05D
:1002E0009DE1899FF0011124EF5FFE4F82818230F2
:1002F00039F082E0828381E0F901E051FE4F808392
:100300008DE1829FF001839FF00D1124EF5FFE4F7E
:10031000138280915801082E000C990B2817390779
:1003200019F48FEF8093580180915901082E000C29
:10033000990B2817390719F48FEF809359010E9400
:1003400003030C9497042DE1829FC0011124FC014A
:10035000EF5FFE4F13828FEF809358018093590116
:100360000E9403030C9497041F93CF93DF93182FDD
:10037000109204011092210110923E018DE1189F0C
:10038000E0011124CF5FDE4F81E08B831093580191
:10039000109359010E94030361E0812F0E94000520
:1003A000E885F985309721F0DF91CF911F9109946D
:1003B000DF91CF911F9108950F931F93CF93DF93F8
:1003C000C1E0D1E08E01D80112968C911297811173
:1003D0000FC01696ED91FC911797309709F009958B
:1003E000D8011496ED91FC911597309709F0099575
:1003F000035E1F4FB1E008351B0729F790915801A4
:1004000080910001981731F10E9403032091580157
:1004100027FD1AC01DE12103F0011124EF5FFE4FFB
:1004200080859185892B81F0808191810E945C0576
:10043000209158012103F0011124EF5FFE4F008449
:10044000F185E02D099502C00E9497048091580122
:10045000809300012091580127FD1AC01DE121035E
:10046000F0011124EF5FFE4F8381882389F08081A2
:1004700091810E945C05209158012103F001112413
:10048000EF5FFE4F0084F185E02D309709F009956C
:1004900000EF11E0F8018081882339F0EA85FB85BF
:1004A000309709F00995D8011C920F5F1F4F6D9688
:1004B000B1E0C835DB0771F7DF91CF911F910F9144
:1004C000089580FF02C05C9A01C05C9881FF02C061
:1004D0005D9A01C05D9882FF02C05E9A01C05E987D
:1004E00083FF02C05F9A01C05F98299A85E08A95D0
:1004F000F1F70000299887EC90E00197F1F700C030
:10050000000008951F920F920FB60F9211248F933F
:100510009F93AF93BF938091EC019091ED01A091D7
:10052000EE01B091EF010196A11DB11D8093EC0188
:100530009093ED01A093EE01B093EF01BF91AF91C5
:100540009F918F910F900FBE0F901F901895609103
:10055000EC017091ED018091EE019091EF01089511
:10056000009741F0EFE9FFE03197F1F700C000009C
:100570000197F6CF08959C0140E050E060E472E4FA
:100580008FE090E00E949F07215031093093C50011
:100590002093C40088E18093C10086E08093C2006C
:1005A000089582E084BD99EF97BD93E095BD809357
:1005B0006E0080E895E20E94BB02259A2D9808956E
:1005C0009091C00095FFFCCF8093C6000895809164
:1005D000C00087FFFCCF8091C60008958091C000C5
:1005E00080780895CF93C82F662311F0289A01C010
:1005F00028988C2F82958F700E9461028C2F8F70AB
:10060000CF910C94610260E081E00E94F2028FE3DE
:100610009FE10197F1F700C000000895E62FF0E098
:10062000EC56FE4F9081890F60E080680C94F202D6
:10063000CF93DF93EC018991882321F061E00E9440
:10064000F202F9CFDF91CF910895CF930E94EE028D
:10065000882309F453C00E94E702C82F0E94E002D9
:10066000809159018F3F59F5C43651F48091E701CB
:10067000082E000C990B01966091800170E00DC06E
:10068000C13691F46091800170E08091E701082EFD
:10069000000C990B0197860F971F0E948B07809380
:1006A000E701CF910C949704C73741F58091E7019A
:1006B0000E94B4018091E701809359011FC0C337A4
:1006C00091F038F4C53661F0C137C1F40E94610180
:1006D0000FC0C73759F0C83789F4CF910C946E0119
:1006E0000E94580105C0CF910C94A3010E94B4014F
:1006F00061E080915901CF910C940005CF9108954C
:1007000080FF02C05C9A01C05C9881FF02C05D9AC4
:1007100001C05D9882FF02C05E9A01C05E9883FFAF
:1007200002C05F9A01C05F98299A85E08A95F1F727
:100730000000299887EC90E00197F1F700C00000D5
:100740000895CF93C82F662311F0289A01C02898E6
:100750008C2F82958F700E9480038C2F8F70CF9189
:100760000C9480030F931F93CF93DF938B018770BB
:1007700028E0829FC001112460E080640E94A103F0
:10078000E801085F1F4F61E089910E94A103C01733
:10079000D107C9F7DF91CF911F910F91089584B1CF
:1007A000836084B98AB1886F8AB92FEF80E792E0BD
:1007B000215080409040E1F700C0000083E00E949B
:1007C00080038FE19EE40197F1F700C0000083E011
:1007D0000E94800387E592E00197F1F700C00000D6
:1007E00083E00E94800382E00E94800360E088E250
:1007F0000E94A10360E08CE00E94A10360E081E020
:100800000E94A1038FE39FE10197F1F700C0000070
:1008100083EA8093B00082E08093B10080E580930A
:10082000B30080EA8093B40066ED71E080E00E943E
:10083000B2036EEC71E081E00E94B20366EC71E0FD
:1008400082E00E94B2036EEB71E083E00E94B2038B
:1008500066EB71E084E00E94B2030C944C01EF92CD
:10086000FF920F931F93CF93DF93CDB7DEB76197BE
:100870000FB6F894DEBF0FBECDBF7C018B01892B74
:10088000F1F060E070E080E090E00E940E03FF92E3
:10089000EF9286E991E09F938F931F9281E18F936E
:1008A000CE0101967C019F938F930E94FD06C701A4
:1008B0000E9418030FB6F894DEBF0FBECDBF01151E
:1008C0001105F1F061E070E080E090E00E940E031D
:1008D0001F930F9386E991E09F938F931F9281E17D
:1008E0008F938E010F5F1F4F1F930F930E94FD0682
:1008F000C8010E9418030FB6F894DEBF0FBECDBF2B
:1009000061960FB6F894DEBF0FBECDBFDF91CF91D9
:100910001F910F91FF90EF900895833030F4E82FEE
:10092000F0E0ED54FE4F808108958FE308950F931A
:100930001F93CF93DF93CDB7DEB761970FB6F894CF
:10094000DEBF0FBECDBF809180011F928F9380913B
:10095000E701082E000C990B01969F938F938CE969
:1009600091E09F938F931F9281E18F938E010F5F90
:100970001F4F1F930F930E94FD066FE671E0C801A1
:100980000E942F0461E070E080E090E00E940E037E
:1009900061E08BE50E94A103E091E7018DE1E802AF
:1009A000F0011124EF5FFE4FE2810FB6F894DEBF35
:1009B0000FBECDBFE33028F4F0E0ED54FE4F808150
:1009C00001C08FE361E00E94A10361E08DE50E9418
:1009D000A103E091E7019DE1E902F0011124EF5F3D
:1009E000FE4F808191810E94180361960FB6F894A2
:1009F000DEBF0FBECDBFDF91CF911F910F91089544
:100A0000EF92FF921F93CF93DF93CDB7DEB761973D
:100A10000FB6F894DEBF0FBECDBF282F30E09DE1AA
:100A2000899FF0011124EF5FFE4FE281E33028F44B
:100A3000F0E0ED54FE4F108101C01FE38DE1829F75
:100A4000F001839FF00D1124EF5FFE4F81818F93A2
:100A500080818F938DEA91E09F938F931F9281E124
:100A60008F93CE0101967C019F938F930E94FD0688
:100A700060E070E080E090E00E940E03C7010E94F9
:100A8000180360E070E08FE090E00E940E0361E0E8
:100A9000812F0E94A1030FB6F894DEBF0FBECDBF19
:100AA00061960FB6F894DEBF0FBECDBFDF91CF9138
:100AB0001F91FF90EF9008950F931F93CF93DF93B3
:100AC000CDB7DEB761970FB6F894DEBF0FBECDBFCE
:100AD0009F938F938DEA91E09F938F931F9281E173
:100AE0008F938E010F5F1F4F1F930F930E94FD0680
:100AF00060E070E080E090E00E940E03C8010E9478
:100B0000180360E070E08FE090E00E940E0361E067
:100B100083E00E94A1030FB6F894DEBF0FBECDBFE5
:100B200061960FB6F894DEBF0FBECDBFDF91CF91B7
:100B30001F910F910895ABE0B0E0E1EAF5E00C946D
:100B4000C5076C017B013A01FC0117821682838183
:100B500081FF03C1CE0101964C01F601B380F7017C
:100B6000B3FC0591B3FE01917F01002309F4F1C0AC
:100B7000053249F4B3FC0591B3FE01917F010532C2
:100B800011F010E019C0B601802F90E00E94C1065C
:100B900053013501E2CF002309F4DBC0602F70E080
:100BA0008FE690E00E94B606892B49F0F701B3FC6E
:100BB0000591B3FE01917F0117FFEDCF04C0033211
:100BC00039F00C3619F0011105C0C3C01068EECF22
:100BD00010E1ECCF602F70E088E690E00E94B6064E
:100BE000892B41F05301F4E0AF0EB11CB6018FE345
:100BF00090E010C0033631F0033779F0033511F57A
:100C000011600BC0530182E0A80EB11CB601F301C4
:100C1000808191810E94C106BCCF5301F2E0AF0EEA
:100C2000B11CF30160807180F30110FD859110FF0C
:100C300081913F01882309F4ACCFB60190E00E9476
:100C4000C106F2CF043611F0093621F5530117FF22
:100C500009C0F4E0AF0EB11CF301608171818281A3
:100C600093810AC0F2E0AF0EB11CF3016081718183
:100C7000072E000C880B990B1F7E97FF08C09095DC
:100C80008095709561957F4F8F4F9F4F10642AE03C
:100C900030E030C0003791F040F40835A1F00F3655
:100CA00009F057C028E030E011C0053719F00837C7
:100CB00031F04FC01F7E2AE030E008C0106114629E
:100CC00020E130E003C0146020E132E0530117FF5F
:100CD00009C0F4E0AF0EB11CF30160817181828123
:100CE000938108C0F2E0AF0EB11CF3016081718105
:100CF00080E090E0A4010E942D07082F081916FF3C
:100D000005C0B6018DE290E00E94C10614FF15C037
:100D1000FE01E00FF11D8081803379F0B60180E3A0
:100D200090E00E94C10612FF08C01072812F90E06F
:100D3000B601885A9F4F0E94C1060150F401E00F8E
:100D4000F11D8081B60190E00E94C1060111F5CF2E
:100D500020CFF6018681978102C08FEF9FEF2B96FF
:100D6000EEE00C94E107F8940C940C08FC0105905B
:100D7000061621F00020D9F7C00108953197CF0160
:100D800008950F931F93CF93DF93FB01238121FDE0
:100D900003C08FEF9FEF2CC022FF16C04681578102
:100DA000248135814217530744F4A081B1819D010C
:100DB0002F5F3F4F318320838C93268137812F5FB4
:100DC0003F4F3783268314C08B01EC01FB01008465
:100DD000F185E02D0995892BE1F6D80116968D91C4
:100DE0009C911797019617969C938E931697CE0118
:100DF000DF91CF911F910F910895AEE0B0E0E3E055
:100E0000F7E00C94CF070D891E898F89988D26E015
:100E10002C831A83098397FF02C080E090E8019732
:100E20009E838D83AE01455E5F4F698D7A8DCE01C5
:100E300001960E949B054D815E8157FD0AC02F815E
:100E40003885421753070CF49A01F801E20FF31F9B
:100E500010822E96E4E00C94EB07FA01AA272830C2
:100E600051F1203181F1E8946F936E7F6E5F7F4F77
:100E70008F4F9F4FAF4FB1E03ED0B4E03CD0670FF3
:100E8000781F891F9A1FA11D680F791F8A1F911D46
:100E9000A11D6A0F711D811D911DA11D20D009F496
:100EA00068943F912AE0269F11243019305D3193D8
:100EB000DEF6CF010895462F4770405D4193B3E0C1
:100EC0000FD0C9F7F6CF462F4F70405D4A3318F068
:100ED000495D31FD4052419302D0A9F7EACFB4E019
:100EE000A6959795879577956795BA95C9F70097D1
:100EF0006105710508959B01AC010A2E0694579572
:100F0000479537952795BA95C9F7620F731F841FC8
:100F1000951FA01D089597FB072E16F4009407D087
:100F200077FD09D00E94F80707FC05D03EF49095A4
:100F300081959F4F0895709561957F4F0895A1E227
:100F40001A2EAA1BBB1BFD010DC0AA1FBB1FEE1F43
:100F5000FF1FA217B307E407F50720F0A21BB30B8E
:100F6000E40BF50B661F771F881F991F1A9469F70A
:100F700060957095809590959B01AC01BD01CF0166
:100F800008952F923F924F925F926F927F928F922D
:100F90009F92AF92BF92CF92DF92EF92FF920F9308
:100FA0001F93CF93DF93CDB7DEB7CA1BDB0B0FB612
:100FB000F894DEBF0FBECDBF09942A8839884888CF
:100FC0005F846E847D848C849B84AA84B984C88465
:100FD000DF80EE80FD800C811B81AA81B981CE0F5C
:100FE000D11D0FB6F894DEBF0FBECDBFED01089541
:100FF000AA1BBB1B51E107C0AA1FBB1FA617B7073F
:1010000010F0A61BB70B881F991F5A95A9F780955A
:0C1010009095BC01CD010895F894FFCF2D
:10101C00FE8101020080005F008100BC0000000026
:10102C00000000000000000000000000000087012C
:10103C000200ED00BD00EE00FB000000000000000F
:10104C0000000000000000000000008D0102000004
:10105C0001FF0001013B0100000000000000000046
:10106C000000000000000000FFFF557074696D6502
:10107C003A20256C7573004C45443A204F4E2000A5
:10108C004C45443A204F4646005B25635D25730072
:10109C0003436C6F636B0048656172740053746139
:1010AC00747573000040252D313673004665744FFE
:1010BC0053204D656E752025642F256400252D3138
:1010CC00357300000203070E0E1C1F030604000EEE
:1010DC001915130E0000001B1B1B1B1B0000000F1F
:0E10EC00091D1F1C000000080C0E0F0E0C0842
:00000001FF
